{
  "safe": "0xfaEF7338b7490b9E272d80A1a39f4657cAf2b97d",
  "to": "0x5e83c7d195318A5acf46B29E5810DdC323b2F6fD",
  "value": "0",
  "data": "0x01d5062a00000000000000000000000028ade60640fdbdb2609d8d8734d1b5cbefc0c348000000000000000000000000000000000000000000000000000000000000000000000000000000000000000000000000000000000000000000000000000000c000000000000000000000000000000000000000000000000000000000000000000000000000000000000000000000000000000000000000000000000000000000000000000000000000000000000000000000000000000000000000000000000100000000000000000000000000000000000000000000000000000000000002e46a76120200000000000000000000000040a2accbd92bca938b02010e17a5b8929b49130d00000000000000000000000000000000000000000000000000000000000000000000000000000000000000000000000000000000000000000000000000000140000000000000000000000000000000000000000000000000000000000000000100000000000000000000000000000000000000000000000000000000000000000000000000000000000000000000000000000000000000000000000000000000000000000000000000000000000000000000000000000000000000000000000000000000000000000000000000000000000000000000000000000000000000000000000000000000000000000000000000000000000000000000000000000000000000000000000000000000000000000000000000000000000000000000026000000000000000000000000000000000000000000000000000000000000000e48d80ff0a0000000000000000000000000000000000000000000000000000000000000020000000000000000000000000000000000000000000000000000000000000009900db023566064246399b4ae851197a97729c93a6cf0000000000000000000000000000000000000000000000000000000000000000000000000000000000000000000000000000000000000000000000000000004499a88ec400000000000000000000000078469728304326cbc65f8f95fa756b0b731644620000000000000000000000003791fcebb2ffefe215cb64e61b59cfb0458df9dc000000000000000000000000000000000000000000000000000000000000000000000000000000000000000000000000000000000000000000000000000000000000410000000000000000000000005e83c7d195318a5acf46b29e5810ddc323b2f6fd0000000000000000000000000000000000000000000000000000000000000000010000000000000000000000000000000000000000000000000000000000000000000000000000000000000000000000000000000000000000000000",
  "operation": 0,
  "gasToken": "0x0000000000000000000000000000000000000000",
  "safeTxGas": 0,
  "baseGas": 0,
  "gasPrice": "0",
  "refundReceiver": "0x0000000000000000000000000000000000000000",
  "nonce": 21,
  "executionDate": "2025-02-20T16:36:48Z",
  "submissionDate": "2025-02-20T16:25:09.512869Z",
  "modified": "2025-02-20T16:36:48Z",
  "blockNumber": 3392158,
  "transactionHash": "0x14b1a9335aae53272bd35de7ccac02838557879f609f9af56bb153f5163cbf19",
  "safeTxHash": "0xb88ce52c8ac948a7cb14466f846b5db0c560fcfbae2362c612fc143cb1e20ad9",
  "proposer": "0x6c64B7DD01aB73ABEaf8D79f906C9C608f2D4033",
  "executor": "0x845FDF97F8022BCf7c4dfe1Be5CE9f0aC80ba58f",
  "isExecuted": true,
  "isSuccessful": true,
  "ethGasPrice": "1000309",
  "maxFeePerGas": "1000492",
  "maxPriorityFeePerGas": "1000000",
  "gasUsed": 116433,
  "fee": "116468977797",
  "origin": "{}",
  "dataDecoded": {
    "method": "schedule",
    "parameters": [
      {
        "name": "target",
        "type": "address",
        "value": "0x28Ade60640fdBDb2609D8d8734D1b5cBeFc0C348"
      },
      {
        "name": "value",
        "type": "uint256",
        "value": "0"
      },
      {
        "name": "data",
        "type": "bytes",
        "value": "0x6a76120200000000000000000000000040a2accbd92bca938b02010e17a5b8929b49130d00000000000000000000000000000000000000000000000000000000000000000000000000000000000000000000000000000000000000000000000000000140000000000000000000000000000000000000000000000000000000000000000100000000000000000000000000000000000000000000000000000000000000000000000000000000000000000000000000000000000000000000000000000000000000000000000000000000000000000000000000000000000000000000000000000000000000000000000000000000000000000000000000000000000000000000000000000000000000000000000000000000000000000000000000000000000000000000000000000000000000000000000000000000000000000000026000000000000000000000000000000000000000000000000000000000000000e48d80ff0a0000000000000000000000000000000000000000000000000000000000000020000000000000000000000000000000000000000000000000000000000000009900db023566064246399b4ae851197a97729c93a6cf0000000000000000000000000000000000000000000000000000000000000000000000000000000000000000000000000000000000000000000000000000004499a88ec400000000000000000000000078469728304326cbc65f8f95fa756b0b731644620000000000000000000000003791fcebb2ffefe215cb64e61b59cfb0458df9dc000000000000000000000000000000000000000000000000000000000000000000000000000000000000000000000000000000000000000000000000000000000000410000000000000000000000005e83c7d195318a5acf46b29e5810ddc323b2f6fd00000000000000000000000000000000000000000000000000000000000000000100000000000000000000000000000000000000000000000000000000000000"
      },
      {
        "name": "predecessor",
        "type": "bytes32",
        "value": "0x0000000000000000000000000000000000000000000000000000000000000000"
      },
      {
        "name": "salt",
        "type": "bytes32",
        "value": "0x0000000000000000000000000000000000000000000000000000000000000000"
      },
      {
        "name": "delay",
        "type": "uint256",
        "value": "1"
      }
    ]
  },
  "confirmationsRequired": 2,
  "confirmations": [
    {
      "owner": "0x6c64B7DD01aB73ABEaf8D79f906C9C608f2D4033",
      "submissionDate": "2025-02-20T16:25:09.567742Z",
      "transactionHash": null,
      "signature": "0x28a3e3bb62c4925127fe32e4ff931d2932daa594b4776e89f046de3250a6a4eb28b1f0e8a144101eb75d1431a4a0b2ad8d4db382890c0e77b892da6e551f91eb1b",
      "signatureType": "EOA"
    },
    {
      "owner": "0x845FDF97F8022BCf7c4dfe1Be5CE9f0aC80ba58f",
      "submissionDate": "2025-02-20T16:36:48Z",
      "transactionHash": null,
      "signature": "0x000000000000000000000000845fdf97f8022bcf7c4dfe1be5ce9f0ac80ba58f000000000000000000000000000000000000000000000000000000000000000001",
      "signatureType": "APPROVED_HASH"
    }
  ],
  "trusted": true,
  "signatures": "0x28a3e3bb62c4925127fe32e4ff931d2932daa594b4776e89f046de3250a6a4eb28b1f0e8a144101eb75d1431a4a0b2ad8d4db382890c0e77b892da6e551f91eb1b000000000000000000000000845fdf97f8022bcf7c4dfe1be5ce9f0ac80ba58f000000000000000000000000000000000000000000000000000000000000000001"
}