{
  "safe": "0xfaEF7338b7490b9E272d80A1a39f4657cAf2b97d",
  "to": "0x5e83c7d195318A5acf46B29E5810DdC323b2F6fD",
  "value": "0",
  "data": "0x01d5062a00000000000000000000000028ade60640fdbdb2609d8d8734d1b5cbefc0c348000000000000000000000000000000000000000000000000000000000000000000000000000000000000000000000000000000000000000000000000000000c06cad9177644f7814ed2685dead4b17fe2a78bfefa1f84835b8e481f3e997a1c10000000000000000000000000000000000000000000000000000000000000000000000000000000000000000000000000000000000000000000000000000000100000000000000000000000000000000000000000000000000000000000002c46a76120200000000000000000000000040a2accbd92bca938b02010e17a5b8929b49130d00000000000000000000000000000000000000000000000000000000000000000000000000000000000000000000000000000000000000000000000000000140000000000000000000000000000000000000000000000000000000000000000100000000000000000000000000000000000000000000000000000000000000000000000000000000000000000000000000000000000000000000000000000000000000000000000000000000000000000000000000000000000000000000000000000000000000000000000000000000000000000000000000000000000000000000000000000000000000000000000000000000000000000000000000000000000000000000000000000000000000000000000000000000000000000000024000000000000000000000000000000000000000000000000000000000000000c48d80ff0a000000000000000000000000000000000000000000000000000000000000002000000000000000000000000000000000000000000000000000000000000000790030770d7e3e71112d7a6b7259542d1f680a70e31500000000000000000000000000000000000000000000000000000000000000000000000000000000000000000000000000000000000000000000000000000024fabc1cbc0000000000000000000000000000000000000000000000000000000000000000000000000000000000000000000000000000000000000000000000000000000000000000000000000000000000000000000000000000000000000000000000000000410000000000000000000000005e83c7d195318a5acf46b29e5810ddc323b2f6fd0000000000000000000000000000000000000000000000000000000000000000010000000000000000000000000000000000000000000000000000000000000000000000000000000000000000000000000000000000000000000000",
  "operation": 0,
  "gasToken": "0x0000000000000000000000000000000000000000",
  "safeTxGas": 0,
  "baseGas": 0,
  "gasPrice": "0",
  "refundReceiver": "0x0000000000000000000000000000000000000000",
  "nonce": 23,
  "executionDate": "2025-02-24T19:39:36Z",
  "submissionDate": "2025-02-24T19:33:17.080871Z",
  "modified": "2025-02-24T19:39:36Z",
  "blockNumber": 3419078,
  "transactionHash": "0x13f3f97cd17a65d0db5ef785ca5e1378f11ce20fc2e03e2c8b10cb7b64b4b3b2",
  "safeTxHash": "0xa1d8f0fcc0031a244bbc2cb9d02510e7827320667f09e0e941edde4128913702",
  "proposer": "0xC1a501f5627229A7fF66F62a9e47A6CB377543Cf",
  "executor": "0x6c64B7DD01aB73ABEaf8D79f906C9C608f2D4033",
  "isExecuted": true,
  "isSuccessful": true,
  "ethGasPrice": "2237446",
  "maxFeePerGas": "4088822",
  "maxPriorityFeePerGas": "970000",
  "gasUsed": 115655,
  "fee": "258771817130",
  "origin": "{}",
  "dataDecoded": {
    "method": "schedule",
    "parameters": [
      {
        "name": "target",
        "type": "address",
        "value": "0x28Ade60640fdBDb2609D8d8734D1b5cBeFc0C348"
      },
      {
        "name": "value",
        "type": "uint256",
        "value": "0"
      },
      {
        "name": "data",
        "type": "bytes",
        "value": "0x6a76120200000000000000000000000040a2accbd92bca938b02010e17a5b8929b49130d00000000000000000000000000000000000000000000000000000000000000000000000000000000000000000000000000000000000000000000000000000140000000000000000000000000000000000000000000000000000000000000000100000000000000000000000000000000000000000000000000000000000000000000000000000000000000000000000000000000000000000000000000000000000000000000000000000000000000000000000000000000000000000000000000000000000000000000000000000000000000000000000000000000000000000000000000000000000000000000000000000000000000000000000000000000000000000000000000000000000000000000000000000000000000000000024000000000000000000000000000000000000000000000000000000000000000c48d80ff0a000000000000000000000000000000000000000000000000000000000000002000000000000000000000000000000000000000000000000000000000000000790030770d7e3e71112d7a6b7259542d1f680a70e31500000000000000000000000000000000000000000000000000000000000000000000000000000000000000000000000000000000000000000000000000000024fabc1cbc0000000000000000000000000000000000000000000000000000000000000000000000000000000000000000000000000000000000000000000000000000000000000000000000000000000000000000000000000000000000000000000000000000410000000000000000000000005e83c7d195318a5acf46b29e5810ddc323b2f6fd00000000000000000000000000000000000000000000000000000000000000000100000000000000000000000000000000000000000000000000000000000000"
      },
      {
        "name": "predecessor",
        "type": "bytes32",
        "value": "0x6cad9177644f7814ed2685dead4b17fe2a78bfefa1f84835b8e481f3e997a1c1"
      },
      {
        "name": "salt",
        "type": "bytes32",
        "value": "0x0000000000000000000000000000000000000000000000000000000000000000"
      },
      {
        "name": "delay",
        "type": "uint256",
        "value": "1"
      }
    ]
  },
  "confirmationsRequired": 2,
  "confirmations": [
    {
      "owner": "0xC1a501f5627229A7fF66F62a9e47A6CB377543Cf",
      "submissionDate": "2025-02-24T19:33:17.134065Z",
      "transactionHash": null,
      "signature": "0x8a9610df164d2eff6fdadc83efbc70097dfcba8d8affe288241cc5f72dd9ca7509539860457e3474da3cf0090bdafc0c24a23869d47987aac40d144f2b0dd6241c",
      "signatureType": "EOA"
    },
    {
      "owner": "0x6c64B7DD01aB73ABEaf8D79f906C9C608f2D4033",
      "submissionDate": "2025-02-24T19:39:36Z",
      "transactionHash": null,
      "signature": "0x0000000000000000000000006c64b7dd01ab73abeaf8d79f906c9c608f2d4033000000000000000000000000000000000000000000000000000000000000000001",
      "signatureType": "APPROVED_HASH"
    }
  ],
  "trusted": true,
  "signatures": "0x0000000000000000000000006c64b7dd01ab73abeaf8d79f906c9c608f2d40330000000000000000000000000000000000000000000000000000000000000000018a9610df164d2eff6fdadc83efbc70097dfcba8d8affe288241cc5f72dd9ca7509539860457e3474da3cf0090bdafc0c24a23869d47987aac40d144f2b0dd6241c"
}