{
  "safe": "0x6d609cD2812bDA02a75dcABa7DaafE4B20Ff5608",
  "to": "0x7c66A1e862E11C4887270aBd649157ACe837A2D0",
  "value": "0",
  "data": "0x01d5062a00000000000000000000000084e5e0d6f6c3153057bd5d661be1ff1766ceac08000000000000000000000000000000000000000000000000000000000000000000000000000000000000000000000000000000000000000000000000000000c000000000000000000000000000000000000000000000000000000000000000000000000000000000000000000000000000000000000000000000000000000000000000000000000000000000000000000000000000000000000000000000000100000000000000000000000000000000000000000000000000000000000003e46a76120200000000000000000000000040a2accbd92bca938b02010e17a5b8929b49130d00000000000000000000000000000000000000000000000000000000000000000000000000000000000000000000000000000000000000000000000000000140000000000000000000000000000000000000000000000000000000000000000100000000000000000000000000000000000000000000000000000000000000000000000000000000000000000000000000000000000000000000000000000000000000000000000000000000000000000000000000000000000000000000000000000000000000000000000000000000000000000000000000000000000000000000000000000000000000000000000000000000000000000000000000000000000000000000000000000000000000000000000000000000000000000000036000000000000000000000000000000000000000000000000000000000000001e48d80ff0a0000000000000000000000000000000000000000000000000000000000000020000000000000000000000000000000000000000000000000000000000000018b0092cc4a800a1513e85c481dddf3a06c6921211eac000000000000000000000000000000000000000000000000000000000000000000000000000000000000000000000000000000000000000000000000000000243659cfe6000000000000000000000000473b5943af507a5fdb403c67b2971e5724b64938001bef05c7303d44e0e2fcd2a19d993eded4c51b5b0000000000000000000000000000000000000000000000000000000000000000000000000000000000000000000000000000000000000000000000000000004499a88ec4000000000000000000000000b8d8952f572e67b11e43bc21250967772fa883ff0000000000000000000000000696114a2d169d68849b904a00d7add90d31ee2400b8d8952f572e67b11e43bc21250967772fa883ff000000000000000000000000000000000000000000000000000000000000000000000000000000000000000000000000000000000000000000000000000000240d1e9de10000000000000000000000006d609cd2812bda02a75dcaba7daafe4b20ff56080000000000000000000000000000000000000000000000000000000000000000000000000000000000000000000000000000000000000000000000000000000000000000000000000000000000000000410000000000000000000000007c66a1e862e11c4887270abd649157ace837a2d00000000000000000000000000000000000000000000000000000000000000000010000000000000000000000000000000000000000000000000000000000000000000000000000000000000000000000000000000000000000000000",
  "operation": 0,
  "gasToken": "0x0000000000000000000000000000000000000000",
  "safeTxGas": 0,
  "baseGas": 0,
  "gasPrice": "0",
  "refundReceiver": "0x0000000000000000000000000000000000000000",
  "nonce": 16,
  "executionDate": "2025-02-24T19:07:36Z",
  "submissionDate": "2025-02-24T19:04:38.194714Z",
  "modified": "2025-02-24T19:07:42.118234Z",
  "blockNumber": 3418929,
  "transactionHash": "0xb0c9aee06251c188eb575d372fd00bcdb123f10814c5b86e0b3097aebd988a64",
  "safeTxHash": "0x6eb2e0d68ba3320b74d6f600753a07c1e8d177073668d630b008a653e64809c3",
  "proposer": "0xDA29BB71669f46F2a779b4b62f03644A84eE3479",
  "executor": "0xDA29BB71669f46F2a779b4b62f03644A84eE3479",
  "isExecuted": true,
  "isSuccessful": true,
  "ethGasPrice": "2403204",
  "maxFeePerGas": "3876304",
  "maxPriorityFeePerGas": "1000000",
  "gasUsed": 119044,
  "fee": "286087016976",
  "origin": "{}",
  "dataDecoded": {
    "method": "schedule",
    "parameters": [
      {
        "name": "target",
        "type": "address",
        "value": "0x84E5e0D6f6c3153057bd5d661Be1ff1766cEac08"
      },
      {
        "name": "value",
        "type": "uint256",
        "value": "0"
      },
      {
        "name": "data",
        "type": "bytes",
        "value": "0x6a76120200000000000000000000000040a2accbd92bca938b02010e17a5b8929b49130d00000000000000000000000000000000000000000000000000000000000000000000000000000000000000000000000000000000000000000000000000000140000000000000000000000000000000000000000000000000000000000000000100000000000000000000000000000000000000000000000000000000000000000000000000000000000000000000000000000000000000000000000000000000000000000000000000000000000000000000000000000000000000000000000000000000000000000000000000000000000000000000000000000000000000000000000000000000000000000000000000000000000000000000000000000000000000000000000000000000000000000000000000000000000000000000036000000000000000000000000000000000000000000000000000000000000001e48d80ff0a0000000000000000000000000000000000000000000000000000000000000020000000000000000000000000000000000000000000000000000000000000018b0092cc4a800a1513e85c481dddf3a06c6921211eac000000000000000000000000000000000000000000000000000000000000000000000000000000000000000000000000000000000000000000000000000000243659cfe6000000000000000000000000473b5943af507a5fdb403c67b2971e5724b64938001bef05c7303d44e0e2fcd2a19d993eded4c51b5b0000000000000000000000000000000000000000000000000000000000000000000000000000000000000000000000000000000000000000000000000000004499a88ec4000000000000000000000000b8d8952f572e67b11e43bc21250967772fa883ff0000000000000000000000000696114a2d169d68849b904a00d7add90d31ee2400b8d8952f572e67b11e43bc21250967772fa883ff000000000000000000000000000000000000000000000000000000000000000000000000000000000000000000000000000000000000000000000000000000240d1e9de10000000000000000000000006d609cd2812bda02a75dcaba7daafe4b20ff56080000000000000000000000000000000000000000000000000000000000000000000000000000000000000000000000000000000000000000000000000000000000000000000000000000000000000000410000000000000000000000007c66a1e862e11c4887270abd649157ace837a2d000000000000000000000000000000000000000000000000000000000000000000100000000000000000000000000000000000000000000000000000000000000"
      },
      {
        "name": "predecessor",
        "type": "bytes32",
        "value": "0x0000000000000000000000000000000000000000000000000000000000000000"
      },
      {
        "name": "salt",
        "type": "bytes32",
        "value": "0x0000000000000000000000000000000000000000000000000000000000000000"
      },
      {
        "name": "delay",
        "type": "uint256",
        "value": "1"
      }
    ]
  },
  "confirmationsRequired": 1,
  "confirmations": [
    {
      "owner": "0xDA29BB71669f46F2a779b4b62f03644A84eE3479",
      "submissionDate": "2025-02-24T19:04:38.249045Z",
      "transactionHash": null,
      "signature": "0x2bd84b7f96e94f39338b25e9724e2d7d4d78ce2e7340b6000fd82186c3da02751e0b14b6e5b6cf4d26d8194e31e8be63af304dc306f1dc38681113530057555a1b",
      "signatureType": "EOA"
    }
  ],
  "trusted": true,
  "signatures": "0x2bd84b7f96e94f39338b25e9724e2d7d4d78ce2e7340b6000fd82186c3da02751e0b14b6e5b6cf4d26d8194e31e8be63af304dc306f1dc38681113530057555a1b"
}