{
  "safe": "0xfaEF7338b7490b9E272d80A1a39f4657cAf2b97d",
  "to": "0x5e83c7d195318A5acf46B29E5810DdC323b2F6fD",
  "value": "0",
  "data": "0x01d5062a00000000000000000000000028ade60640fdbdb2609d8d8734d1b5cbefc0c348000000000000000000000000000000000000000000000000000000000000000000000000000000000000000000000000000000000000000000000000000000c000000000000000000000000000000000000000000000000000000000000000000000000000000000000000000000000000000000000000000000000000000000000000000000000000000000000000000000000000000000000000000000000100000000000000000000000000000000000000000000000000000000000002446a761202000000000000000000000000db023566064246399b4ae851197a97729c93a6cf0000000000000000000000000000000000000000000000000000000000000000000000000000000000000000000000000000000000000000000000000000014000000000000000000000000000000000000000000000000000000000000000000000000000000000000000000000000000000000000000000000000000000000000000000000000000000000000000000000000000000000000000000000000000000000000000000000000000000000000000000000000000000000000000000000000000000000000000000000000000000000000000000000000000000000000000000000000000000000000000000000000000000000000000000000000000000000000000000000000000000000000000000000000000000000000001c0000000000000000000000000000000000000000000000000000000000000004499a88ec4000000000000000000000000acc1fb458a1317e886db376fc8141540537e68fe0000000000000000000000003944f51c1e444b38fffb3e73b35540cf2061bce40000000000000000000000000000000000000000000000000000000000000000000000000000000000000000000000000000000000000000000000410000000000000000000000005e83c7d195318a5acf46b29e5810ddc323b2f6fd0000000000000000000000000000000000000000000000000000000000000000010000000000000000000000000000000000000000000000000000000000000000000000000000000000000000000000000000000000000000000000",
  "operation": 0,
  "gasToken": "0x0000000000000000000000000000000000000000",
  "safeTxGas": 0,
  "baseGas": 0,
  "gasPrice": "0",
  "refundReceiver": "0x0000000000000000000000000000000000000000",
  "nonce": 16,
  "executionDate": "2024-12-13T18:37:12Z",
  "submissionDate": "2024-12-13T18:33:04.697227Z",
  "modified": "2024-12-13T18:37:12Z",
  "blockNumber": 2929904,
  "transactionHash": "0xbdb2a1b6958d23850c87ba7b266cd2a0fab13489da6d31445be8e45d1ab173b5",
  "safeTxHash": "0x8bc34f15cb6525ebefb561be64dc8490599b1834afbeb566569938b35a473c7e",
  "proposer": "0x27977e6E4426A525d055A587d2a0537b4cb376eA",
  "executor": "0x845FDF97F8022BCf7c4dfe1Be5CE9f0aC80ba58f",
  "isExecuted": true,
  "isSuccessful": true,
  "ethGasPrice": "60842858",
  "maxFeePerGas": "60842867",
  "maxPriorityFeePerGas": "60842851",
  "gasUsed": 112683,
  "fee": "6855955768014",
  "origin": "{}",
  "dataDecoded": {
    "method": "schedule",
    "parameters": [
      {
        "name": "target",
        "type": "address",
        "value": "0x28Ade60640fdBDb2609D8d8734D1b5cBeFc0C348"
      },
      {
        "name": "value",
        "type": "uint256",
        "value": "0"
      },
      {
        "name": "data",
        "type": "bytes",
        "value": "0x6a761202000000000000000000000000db023566064246399b4ae851197a97729c93a6cf0000000000000000000000000000000000000000000000000000000000000000000000000000000000000000000000000000000000000000000000000000014000000000000000000000000000000000000000000000000000000000000000000000000000000000000000000000000000000000000000000000000000000000000000000000000000000000000000000000000000000000000000000000000000000000000000000000000000000000000000000000000000000000000000000000000000000000000000000000000000000000000000000000000000000000000000000000000000000000000000000000000000000000000000000000000000000000000000000000000000000000000000000000000000000000000001c0000000000000000000000000000000000000000000000000000000000000004499a88ec4000000000000000000000000acc1fb458a1317e886db376fc8141540537e68fe0000000000000000000000003944f51c1e444b38fffb3e73b35540cf2061bce40000000000000000000000000000000000000000000000000000000000000000000000000000000000000000000000000000000000000000000000410000000000000000000000005e83c7d195318a5acf46b29e5810ddc323b2f6fd00000000000000000000000000000000000000000000000000000000000000000100000000000000000000000000000000000000000000000000000000000000"
      },
      {
        "name": "predecessor",
        "type": "bytes32",
        "value": "0x0000000000000000000000000000000000000000000000000000000000000000"
      },
      {
        "name": "salt",
        "type": "bytes32",
        "value": "0x0000000000000000000000000000000000000000000000000000000000000000"
      },
      {
        "name": "delay",
        "type": "uint256",
        "value": "1"
      }
    ]
  },
  "confirmationsRequired": 2,
  "confirmations": [
    {
      "owner": "0x27977e6E4426A525d055A587d2a0537b4cb376eA",
      "submissionDate": "2024-12-13T18:33:04.820776Z",
      "transactionHash": null,
      "signature": "0x6dc5060727401ef8a602fcffb9cf2a9316df8f2d0fc71cd2373d35f0c53c79181ef34f7244ffdfb24ac83d637e0cb2627c08ec3033bfc383b6a3b593419e8ca71b",
      "signatureType": "EOA"
    },
    {
      "owner": "0x845FDF97F8022BCf7c4dfe1Be5CE9f0aC80ba58f",
      "submissionDate": "2024-12-13T18:37:12Z",
      "transactionHash": null,
      "signature": "0x000000000000000000000000845fdf97f8022bcf7c4dfe1be5ce9f0ac80ba58f000000000000000000000000000000000000000000000000000000000000000001",
      "signatureType": "APPROVED_HASH"
    }
  ],
  "trusted": true,
  "signatures": "0x6dc5060727401ef8a602fcffb9cf2a9316df8f2d0fc71cd2373d35f0c53c79181ef34f7244ffdfb24ac83d637e0cb2627c08ec3033bfc383b6a3b593419e8ca71b000000000000000000000000845fdf97f8022bcf7c4dfe1be5ce9f0ac80ba58f000000000000000000000000000000000000000000000000000000000000000001"
}