{
  "safe": "0x872Ac6896A7DCd3907704Fab60cc87ab7Cac6A9B",
  "to": "0x40A2aCCbd92BCA938b02010E17A5b8929b49130D",
  "value": "0",
  "data": "0x8d80ff0a000000000000000000000000000000000000000000000000000000000000002000000000000000000000000000000000000000000000000000000000000003f900cf19ce0561052a7a7ff21156730285997b350a7d000000000000000000000000000000000000000000000000000000000000000000000000000000000000000000000000000000000000000000000000000003a43a66f90100000000000000000000000028ade60640fdbdb2609d8d8734d1b5cbefc0c348000000000000000000000000000000000000000000000000000000000000000000000000000000000000000000000000000000000000000000000000000000a000000000000000000000000000000000000000000000000000000000000000c0ffffffffffffffffffffffffffffffffffffffffffffffffffffffffffffffff000000000000000000000000000000000000000000000000000000000000000000000000000000000000000000000000000000000000000000000000000002a48d80ff0a000000000000000000000000000000000000000000000000000000000000006000000000000000000000000040a2accbd92bca938b02010e17a5b8929b49130d000000000000000000000000cf19ce0561052a7a7ff21156730285997b350a7d00000000000000000000000000000000000000000000000000000000000002048d80ff0a000000000000000000000000000000000000000000000000000000000000002000000000000000000000000000000000000000000000000000000000000001b900db023566064246399b4ae851197a97729c93a6cf000000000000000000000000000000000000000000000000000000000000000000000000000000000000000000000000000000000000000000000000000001649623609d000000000000000000000000acc1fb458a1317e886db376fc8141540537e68fe0000000000000000000000006848f76556883438c485506a62f7c3d5e18063f2000000000000000000000000000000000000000000000000000000000000006000000000000000000000000000000000000000000000000000000000000000c4d4540a5500000000000000000000000028ade60640fdbdb2609d8d8734d1b5cbefc0c34800000000000000000000000085ef7299f8311b25642679edbf02b62fa2212f06000000000000000000000000000000000000000000000000000000000000000000000000000000000000000018a0f92ad9645385e8a8f3db7d0f6cf7abbb0ad40000000000000000000000000000000000000000000000000000000000001c2000000000000000000000000000000000000000000000000000000000000003e80000000000000000000000000000000000000000000000000000000000000000000000000000000000000000000000000000000000000000000000000000000000000000000000000000000000000000000000000000000000000000000000000000",
  "operation": 1,
  "gasToken": "0x0000000000000000000000000000000000000000",
  "safeTxGas": 0,
  "baseGas": 0,
  "gasPrice": "0",
  "refundReceiver": "0x0000000000000000000000000000000000000000",
  "nonce": 0,
  "executionDate": null,
  "submissionDate": "2024-11-20T16:28:52.447709Z",
  "modified": "2024-11-20T16:28:52.543874Z",
  "blockNumber": null,
  "transactionHash": null,
  "safeTxHash": "0x7667caa11a8fd816676f475eb8a9cfe9744d816b10f0242730139fbaf8aeac4b",
  "proposer": "0xcf1678fAde0e8b6096bc078d9aCBfc23432e7825",
  "executor": null,
  "isExecuted": false,
  "isSuccessful": null,
  "ethGasPrice": null,
  "maxFeePerGas": null,
  "maxPriorityFeePerGas": null,
  "gasUsed": null,
  "fee": null,
  "origin": "{}",
  "dataDecoded": {
    "method": "multiSend",
    "parameters": [
      {
        "name": "transactions",
        "type": "bytes",
        "value": "0x00cf19ce0561052a7a7ff21156730285997b350a7d000000000000000000000000000000000000000000000000000000000000000000000000000000000000000000000000000000000000000000000000000003a43a66f90100000000000000000000000028ade60640fdbdb2609d8d8734d1b5cbefc0c348000000000000000000000000000000000000000000000000000000000000000000000000000000000000000000000000000000000000000000000000000000a000000000000000000000000000000000000000000000000000000000000000c0ffffffffffffffffffffffffffffffffffffffffffffffffffffffffffffffff000000000000000000000000000000000000000000000000000000000000000000000000000000000000000000000000000000000000000000000000000002a48d80ff0a000000000000000000000000000000000000000000000000000000000000006000000000000000000000000040a2accbd92bca938b02010e17a5b8929b49130d000000000000000000000000cf19ce0561052a7a7ff21156730285997b350a7d00000000000000000000000000000000000000000000000000000000000002048d80ff0a000000000000000000000000000000000000000000000000000000000000002000000000000000000000000000000000000000000000000000000000000001b900db023566064246399b4ae851197a97729c93a6cf000000000000000000000000000000000000000000000000000000000000000000000000000000000000000000000000000000000000000000000000000001649623609d000000000000000000000000acc1fb458a1317e886db376fc8141540537e68fe0000000000000000000000006848f76556883438c485506a62f7c3d5e18063f2000000000000000000000000000000000000000000000000000000000000006000000000000000000000000000000000000000000000000000000000000000c4d4540a5500000000000000000000000028ade60640fdbdb2609d8d8734d1b5cbefc0c34800000000000000000000000085ef7299f8311b25642679edbf02b62fa2212f06000000000000000000000000000000000000000000000000000000000000000000000000000000000000000018a0f92ad9645385e8a8f3db7d0f6cf7abbb0ad40000000000000000000000000000000000000000000000000000000000001c2000000000000000000000000000000000000000000000000000000000000003e800000000000000000000000000000000000000000000000000000000000000000000000000000000000000000000000000000000000000000000000000000000000000000000000000000000000000000000000000000000000000",
        "valueDecoded": [
          {
            "operation": 0,
            "to": "0xcF19CE0561052a7A7Ff21156730285997B350A7D",
            "value": "0",
            "data": "0x3a66f90100000000000000000000000028ade60640fdbdb2609d8d8734d1b5cbefc0c348000000000000000000000000000000000000000000000000000000000000000000000000000000000000000000000000000000000000000000000000000000a000000000000000000000000000000000000000000000000000000000000000c0ffffffffffffffffffffffffffffffffffffffffffffffffffffffffffffffff000000000000000000000000000000000000000000000000000000000000000000000000000000000000000000000000000000000000000000000000000002a48d80ff0a000000000000000000000000000000000000000000000000000000000000006000000000000000000000000040a2accbd92bca938b02010e17a5b8929b49130d000000000000000000000000cf19ce0561052a7a7ff21156730285997b350a7d00000000000000000000000000000000000000000000000000000000000002048d80ff0a000000000000000000000000000000000000000000000000000000000000002000000000000000000000000000000000000000000000000000000000000001b900db023566064246399b4ae851197a97729c93a6cf000000000000000000000000000000000000000000000000000000000000000000000000000000000000000000000000000000000000000000000000000001649623609d000000000000000000000000acc1fb458a1317e886db376fc8141540537e68fe0000000000000000000000006848f76556883438c485506a62f7c3d5e18063f2000000000000000000000000000000000000000000000000000000000000006000000000000000000000000000000000000000000000000000000000000000c4d4540a5500000000000000000000000028ade60640fdbdb2609d8d8734d1b5cbefc0c34800000000000000000000000085ef7299f8311b25642679edbf02b62fa2212f06000000000000000000000000000000000000000000000000000000000000000000000000000000000000000018a0f92ad9645385e8a8f3db7d0f6cf7abbb0ad40000000000000000000000000000000000000000000000000000000000001c2000000000000000000000000000000000000000000000000000000000000003e800000000000000000000000000000000000000000000000000000000000000000000000000000000000000000000000000000000000000000000000000000000000000000000000000000000000000000000000000000000000000",
            "dataDecoded": {
              "method": "queueTransaction",
              "parameters": [
                {
                  "name": "target",
                  "type": "address",
                  "value": "0x28Ade60640fdBDb2609D8d8734D1b5cBeFc0C348"
                },
                {
                  "name": "value",
                  "type": "uint256",
                  "value": "0"
                },
                {
                  "name": "signature",
                  "type": "string",
                  "value": ""
                },
                {
                  "name": "data",
                  "type": "bytes",
                  "value": "0x8d80ff0a000000000000000000000000000000000000000000000000000000000000006000000000000000000000000040a2accbd92bca938b02010e17a5b8929b49130d000000000000000000000000cf19ce0561052a7a7ff21156730285997b350a7d00000000000000000000000000000000000000000000000000000000000002048d80ff0a000000000000000000000000000000000000000000000000000000000000002000000000000000000000000000000000000000000000000000000000000001b900db023566064246399b4ae851197a97729c93a6cf000000000000000000000000000000000000000000000000000000000000000000000000000000000000000000000000000000000000000000000000000001649623609d000000000000000000000000acc1fb458a1317e886db376fc8141540537e68fe0000000000000000000000006848f76556883438c485506a62f7c3d5e18063f2000000000000000000000000000000000000000000000000000000000000006000000000000000000000000000000000000000000000000000000000000000c4d4540a5500000000000000000000000028ade60640fdbdb2609d8d8734d1b5cbefc0c34800000000000000000000000085ef7299f8311b25642679edbf02b62fa2212f06000000000000000000000000000000000000000000000000000000000000000000000000000000000000000018a0f92ad9645385e8a8f3db7d0f6cf7abbb0ad40000000000000000000000000000000000000000000000000000000000001c2000000000000000000000000000000000000000000000000000000000000003e8000000000000000000000000000000000000000000000000000000000000000000000000000000000000000000000000000000000000000000000000000000"
                },
                {
                  "name": "eta",
                  "type": "uint256",
                  "value": "115792089237316195423570985008687907853269984665640564039457584007913129639935"
                }
              ]
            }
          }
        ]
      }
    ]
  },
  "confirmationsRequired": 1,
  "confirmations": [
    {
      "owner": "0xcf1678fAde0e8b6096bc078d9aCBfc23432e7825",
      "submissionDate": "2024-11-20T16:28:52.543874Z",
      "transactionHash": null,
      "signature": "0x4b9b70208cd6e2e566676f1f01e69a9998cee910a7aa5fda8cdcfb4f2bc0e67d31e657ec4bec7a950cf599be945a8e0f23533751500cbf441b6906f13302ef201c",
      "signatureType": "EOA"
    }
  ],
  "trusted": true,
  "signatures": null
}