{
  "safe": "0xd140eE77d9e62901d8cEFf199d3ef4Dd1F4Eaff4",
  "to": "0x5e83c7d195318A5acf46B29E5810DdC323b2F6fD",
  "value": "0",
  "data": "0x134008d300000000000000000000000028ade60640fdbdb2609d8d8734d1b5cbefc0c348000000000000000000000000000000000000000000000000000000000000000000000000000000000000000000000000000000000000000000000000000000a00000000000000000000000000000000000000000000000000000000000000000000000000000000000000000000000000000000000000000000000000000000000000000000000000000000000000000000000000000000000000000000004c46a76120200000000000000000000000040a2accbd92bca938b02010e17a5b8929b49130d00000000000000000000000000000000000000000000000000000000000000000000000000000000000000000000000000000000000000000000000000000140000000000000000000000000000000000000000000000000000000000000000100000000000000000000000000000000000000000000000000000000000000000000000000000000000000000000000000000000000000000000000000000000000000000000000000000000000000000000000000000000000000000000000000000000000000000000000000000000000000000000000000000000000000000000000000000000000000000000000000000000000000000000000000000000000000000000000000000000000000000000000000000000000000000000044000000000000000000000000000000000000000000000000000000000000002c48d80ff0a0000000000000000000000000000000000000000000000000000000000000020000000000000000000000000000000000000000000000000000000000000026400db023566064246399b4ae851197a97729c93a6cf0000000000000000000000000000000000000000000000000000000000000000000000000000000000000000000000000000000000000000000000000000004499a88ec4000000000000000000000000dfb5f6ce42aaa7830e94ecfccad411bef4d4d5b60000000000000000000000007798625888ecf3eb2c3c74dc2746e09d7274767900db023566064246399b4ae851197a97729c93a6cf0000000000000000000000000000000000000000000000000000000000000000000000000000000000000000000000000000000000000000000000000000004499a88ec4000000000000000000000000055733000064333caddbc92763c58bf0192ffebf00000000000000000000000069660e721e4013dd8fef83dce731e915d74b8a0b00db023566064246399b4ae851197a97729c93a6cf0000000000000000000000000000000000000000000000000000000000000000000000000000000000000000000000000000000000000000000000000000004499a88ec4000000000000000000000000a44151489861fe9e3055d95adc98fbd462b948e7000000000000000000000000da6f662777adb5209644cf5cf1a61a2f8a99bf4800db023566064246399b4ae851197a97729c93a6cf0000000000000000000000000000000000000000000000000000000000000000000000000000000000000000000000000000000000000000000000000000004499a88ec4000000000000000000000000acc1fb458a1317e886db376fc8141540537e68fe000000000000000000000000a3c31d2fbad3d924baa64f8789e03e9fa7d70d69000000000000000000000000000000000000000000000000000000000000000000000000000000000000000000000000000000000000000000000000000000000000000000000000000000000000000000000000000000410000000000000000000000005e83c7d195318a5acf46b29e5810ddc323b2f6fd0000000000000000000000000000000000000000000000000000000000000000010000000000000000000000000000000000000000000000000000000000000000000000000000000000000000000000000000000000000000000000",
  "operation": 0,
  "gasToken": "0x0000000000000000000000000000000000000000",
  "safeTxGas": 0,
  "baseGas": 0,
  "gasPrice": "0",
  "refundReceiver": "0x0000000000000000000000000000000000000000",
  "nonce": 13,
  "executionDate": "2025-01-06T20:58:48Z",
  "submissionDate": "2025-01-06T20:53:27.500220Z",
  "modified": "2025-01-06T20:58:48Z",
  "blockNumber": 3091933,
  "transactionHash": "0x9afd3ce22137e6cfe47b0a9640d3f179b77bfb99a2f82dee3d1788bd64f38298",
  "safeTxHash": "0x5e85aee8791a07e38b96168475a6da65bd74302330e03d83a4873cb0921ceed0",
  "proposer": "0x845FDF97F8022BCf7c4dfe1Be5CE9f0aC80ba58f",
  "executor": "0x6c64B7DD01aB73ABEaf8D79f906C9C608f2D4033",
  "isExecuted": true,
  "isSuccessful": true,
  "ethGasPrice": "847825657",
  "maxFeePerGas": "847825667",
  "maxPriorityFeePerGas": "847825649",
  "gasUsed": 217246,
  "fee": "184186732680622",
  "origin": "{}",
  "dataDecoded": {
    "method": "execute",
    "parameters": [
      {
        "name": "target",
        "type": "address",
        "value": "0x28Ade60640fdBDb2609D8d8734D1b5cBeFc0C348"
      },
      {
        "name": "value",
        "type": "uint256",
        "value": "0"
      },
      {
        "name": "payload",
        "type": "bytes",
        "value": "0x6a76120200000000000000000000000040a2accbd92bca938b02010e17a5b8929b49130d00000000000000000000000000000000000000000000000000000000000000000000000000000000000000000000000000000000000000000000000000000140000000000000000000000000000000000000000000000000000000000000000100000000000000000000000000000000000000000000000000000000000000000000000000000000000000000000000000000000000000000000000000000000000000000000000000000000000000000000000000000000000000000000000000000000000000000000000000000000000000000000000000000000000000000000000000000000000000000000000000000000000000000000000000000000000000000000000000000000000000000000000000000000000000000000044000000000000000000000000000000000000000000000000000000000000002c48d80ff0a0000000000000000000000000000000000000000000000000000000000000020000000000000000000000000000000000000000000000000000000000000026400db023566064246399b4ae851197a97729c93a6cf0000000000000000000000000000000000000000000000000000000000000000000000000000000000000000000000000000000000000000000000000000004499a88ec4000000000000000000000000dfb5f6ce42aaa7830e94ecfccad411bef4d4d5b60000000000000000000000007798625888ecf3eb2c3c74dc2746e09d7274767900db023566064246399b4ae851197a97729c93a6cf0000000000000000000000000000000000000000000000000000000000000000000000000000000000000000000000000000000000000000000000000000004499a88ec4000000000000000000000000055733000064333caddbc92763c58bf0192ffebf00000000000000000000000069660e721e4013dd8fef83dce731e915d74b8a0b00db023566064246399b4ae851197a97729c93a6cf0000000000000000000000000000000000000000000000000000000000000000000000000000000000000000000000000000000000000000000000000000004499a88ec4000000000000000000000000a44151489861fe9e3055d95adc98fbd462b948e7000000000000000000000000da6f662777adb5209644cf5cf1a61a2f8a99bf4800db023566064246399b4ae851197a97729c93a6cf0000000000000000000000000000000000000000000000000000000000000000000000000000000000000000000000000000000000000000000000000000004499a88ec4000000000000000000000000acc1fb458a1317e886db376fc8141540537e68fe000000000000000000000000a3c31d2fbad3d924baa64f8789e03e9fa7d70d69000000000000000000000000000000000000000000000000000000000000000000000000000000000000000000000000000000000000000000000000000000000000000000000000000000000000000000000000000000410000000000000000000000005e83c7d195318a5acf46b29e5810ddc323b2f6fd00000000000000000000000000000000000000000000000000000000000000000100000000000000000000000000000000000000000000000000000000000000"
      },
      {
        "name": "predecessor",
        "type": "bytes32",
        "value": "0x0000000000000000000000000000000000000000000000000000000000000000"
      },
      {
        "name": "salt",
        "type": "bytes32",
        "value": "0x0000000000000000000000000000000000000000000000000000000000000000"
      }
    ]
  },
  "confirmationsRequired": 2,
  "confirmations": [
    {
      "owner": "0x845FDF97F8022BCf7c4dfe1Be5CE9f0aC80ba58f",
      "submissionDate": "2025-01-06T20:53:27.566774Z",
      "transactionHash": null,
      "signature": "0x03b99f135a51d695ee798c468e319005686a40953f6c0837861bc80acd5587880efd4ad5a12299085c42bffd2d6310c989fe8da7e4469ebb6f884f0dc5710e591c",
      "signatureType": "EOA"
    },
    {
      "owner": "0x6c64B7DD01aB73ABEaf8D79f906C9C608f2D4033",
      "submissionDate": "2025-01-06T20:58:48Z",
      "transactionHash": null,
      "signature": "0x0000000000000000000000006c64b7dd01ab73abeaf8d79f906c9c608f2d4033000000000000000000000000000000000000000000000000000000000000000001",
      "signatureType": "APPROVED_HASH"
    }
  ],
  "trusted": true,
  "signatures": "0x0000000000000000000000006c64b7dd01ab73abeaf8d79f906c9c608f2d403300000000000000000000000000000000000000000000000000000000000000000103b99f135a51d695ee798c468e319005686a40953f6c0837861bc80acd5587880efd4ad5a12299085c42bffd2d6310c989fe8da7e4469ebb6f884f0dc5710e591c"
}