{
  "safe": "0x314A6B61B5CBFA79dc7b2c0416e039822E886b54",
  "to": "0x7c66A1e862E11C4887270aBd649157ACe837A2D0",
  "value": "0",
  "data": "0x134008d300000000000000000000000084e5e0d6f6c3153057bd5d661be1ff1766ceac08000000000000000000000000000000000000000000000000000000000000000000000000000000000000000000000000000000000000000000000000000000a00000000000000000000000000000000000000000000000000000000000000000000000000000000000000000000000000000000000000000000000000000000000000000000000000000000000000000000000000000000000000000000004c46a76120200000000000000000000000040a2accbd92bca938b02010e17a5b8929b49130d00000000000000000000000000000000000000000000000000000000000000000000000000000000000000000000000000000000000000000000000000000140000000000000000000000000000000000000000000000000000000000000000100000000000000000000000000000000000000000000000000000000000000000000000000000000000000000000000000000000000000000000000000000000000000000000000000000000000000000000000000000000000000000000000000000000000000000000000000000000000000000000000000000000000000000000000000000000000000000000000000000000000000000000000000000000000000000000000000000000000000000000000000000000000000000000044000000000000000000000000000000000000000000000000000000000000002c48d80ff0a00000000000000000000000000000000000000000000000000000000000000200000000000000000000000000000000000000000000000000000000000000264001bef05c7303d44e0e2fcd2a19d993eded4c51b5b0000000000000000000000000000000000000000000000000000000000000000000000000000000000000000000000000000000000000000000000000000004499a88ec4000000000000000000000000f9fbf2e35d8803273e214c99bf15174139f4e67a000000000000000000000000b23e3635ea81ffb93170d02ca555f48c559b3370001bef05c7303d44e0e2fcd2a19d993eded4c51b5b0000000000000000000000000000000000000000000000000000000000000000000000000000000000000000000000000000000000000000000000000000004499a88ec4000000000000000000000000141d6995556135d4997b2ff72eb443be300353bc0000000000000000000000008b3c04f18fdfd5d3eb86a1ad108f13e074fbfc30001bef05c7303d44e0e2fcd2a19d993eded4c51b5b0000000000000000000000000000000000000000000000000000000000000000000000000000000000000000000000000000000000000000000000000000004499a88ec400000000000000000000000075dfe5b44c2e530568001400d3f704bc8ae350cc000000000000000000000000c49b3c5fb6666bca0b480681f3abb7a6d135b3ce001bef05c7303d44e0e2fcd2a19d993eded4c51b5b0000000000000000000000000000000000000000000000000000000000000000000000000000000000000000000000000000000000000000000000000000004499a88ec4000000000000000000000000b22ef643e1e067c994019a4c19e403253c05c2b0000000000000000000000000346d1eca2474c75ff7de34663732c3a4ae3c4725000000000000000000000000000000000000000000000000000000000000000000000000000000000000000000000000000000000000000000000000000000000000000000000000000000000000000000000000000000410000000000000000000000007c66a1e862e11c4887270abd649157ace837a2d00000000000000000000000000000000000000000000000000000000000000000010000000000000000000000000000000000000000000000000000000000000000000000000000000000000000000000000000000000000000000000",
  "operation": 0,
  "gasToken": "0x0000000000000000000000000000000000000000",
  "safeTxGas": 0,
  "baseGas": 0,
  "gasPrice": "0",
  "refundReceiver": "0x0000000000000000000000000000000000000000",
  "nonce": 11,
  "executionDate": "2025-01-03T22:32:00Z",
  "submissionDate": "2025-01-03T22:25:29.858042Z",
  "modified": "2025-01-03T22:32:11.840383Z",
  "blockNumber": 3072092,
  "transactionHash": "0x412dd67213769cb89f37edd2f3945758ae073b8c4f22d8829fe49001e26564ad",
  "safeTxHash": "0xf956ce5672ab0aca34a177e051e4a04912559ec66942899326896703d7c91260",
  "proposer": "0xDA29BB71669f46F2a779b4b62f03644A84eE3479",
  "executor": "0xDA29BB71669f46F2a779b4b62f03644A84eE3479",
  "isExecuted": true,
  "isSuccessful": true,
  "ethGasPrice": "1000016",
  "maxFeePerGas": "1000032",
  "maxPriorityFeePerGas": "1000000",
  "gasUsed": 213323,
  "fee": "213326413168",
  "origin": "{}",
  "dataDecoded": {
    "method": "execute",
    "parameters": [
      {
        "name": "target",
        "type": "address",
        "value": "0x84E5e0D6f6c3153057bd5d661Be1ff1766cEac08"
      },
      {
        "name": "value",
        "type": "uint256",
        "value": "0"
      },
      {
        "name": "payload",
        "type": "bytes",
        "value": "0x6a76120200000000000000000000000040a2accbd92bca938b02010e17a5b8929b49130d00000000000000000000000000000000000000000000000000000000000000000000000000000000000000000000000000000000000000000000000000000140000000000000000000000000000000000000000000000000000000000000000100000000000000000000000000000000000000000000000000000000000000000000000000000000000000000000000000000000000000000000000000000000000000000000000000000000000000000000000000000000000000000000000000000000000000000000000000000000000000000000000000000000000000000000000000000000000000000000000000000000000000000000000000000000000000000000000000000000000000000000000000000000000000000000044000000000000000000000000000000000000000000000000000000000000002c48d80ff0a00000000000000000000000000000000000000000000000000000000000000200000000000000000000000000000000000000000000000000000000000000264001bef05c7303d44e0e2fcd2a19d993eded4c51b5b0000000000000000000000000000000000000000000000000000000000000000000000000000000000000000000000000000000000000000000000000000004499a88ec4000000000000000000000000f9fbf2e35d8803273e214c99bf15174139f4e67a000000000000000000000000b23e3635ea81ffb93170d02ca555f48c559b3370001bef05c7303d44e0e2fcd2a19d993eded4c51b5b0000000000000000000000000000000000000000000000000000000000000000000000000000000000000000000000000000000000000000000000000000004499a88ec4000000000000000000000000141d6995556135d4997b2ff72eb443be300353bc0000000000000000000000008b3c04f18fdfd5d3eb86a1ad108f13e074fbfc30001bef05c7303d44e0e2fcd2a19d993eded4c51b5b0000000000000000000000000000000000000000000000000000000000000000000000000000000000000000000000000000000000000000000000000000004499a88ec400000000000000000000000075dfe5b44c2e530568001400d3f704bc8ae350cc000000000000000000000000c49b3c5fb6666bca0b480681f3abb7a6d135b3ce001bef05c7303d44e0e2fcd2a19d993eded4c51b5b0000000000000000000000000000000000000000000000000000000000000000000000000000000000000000000000000000000000000000000000000000004499a88ec4000000000000000000000000b22ef643e1e067c994019a4c19e403253c05c2b0000000000000000000000000346d1eca2474c75ff7de34663732c3a4ae3c4725000000000000000000000000000000000000000000000000000000000000000000000000000000000000000000000000000000000000000000000000000000000000000000000000000000000000000000000000000000410000000000000000000000007c66a1e862e11c4887270abd649157ace837a2d000000000000000000000000000000000000000000000000000000000000000000100000000000000000000000000000000000000000000000000000000000000"
      },
      {
        "name": "predecessor",
        "type": "bytes32",
        "value": "0x0000000000000000000000000000000000000000000000000000000000000000"
      },
      {
        "name": "salt",
        "type": "bytes32",
        "value": "0x0000000000000000000000000000000000000000000000000000000000000000"
      }
    ]
  },
  "confirmationsRequired": 1,
  "confirmations": [
    {
      "owner": "0xDA29BB71669f46F2a779b4b62f03644A84eE3479",
      "submissionDate": "2025-01-03T22:25:29.982926Z",
      "transactionHash": null,
      "signature": "0xa08f88c3c60f8bc7308dcba0cbb718db4631dcfccfb5cb3225d2d073d7994ea33a2476f656821709d936f0116b544351e8485dddd13869f41a710816349a22d01b",
      "signatureType": "EOA"
    }
  ],
  "trusted": true,
  "signatures": "0xa08f88c3c60f8bc7308dcba0cbb718db4631dcfccfb5cb3225d2d073d7994ea33a2476f656821709d936f0116b544351e8485dddd13869f41a710816349a22d01b"
}