{
  "safe": "0xfaEF7338b7490b9E272d80A1a39f4657cAf2b97d",
  "to": "0x5e83c7d195318A5acf46B29E5810DdC323b2F6fD",
  "value": "0",
  "data": "0x01d5062a00000000000000000000000028ade60640fdbdb2609d8d8734d1b5cbefc0c348000000000000000000000000000000000000000000000000000000000000000000000000000000000000000000000000000000000000000000000000000000c000000000000000000000000000000000000000000000000000000000000000000000000000000000000000000000000000000000000000000000000000000000000000000000000000000000000000000000000000000000000000000000000100000000000000000000000000000000000000000000000000000000000002446a761202000000000000000000000000db023566064246399b4ae851197a97729c93a6cf0000000000000000000000000000000000000000000000000000000000000000000000000000000000000000000000000000000000000000000000000000014000000000000000000000000000000000000000000000000000000000000000000000000000000000000000000000000000000000000000000000000000000000000000000000000000000000000000000000000000000000000000000000000000000000000000000000000000000000000000000000000000000000000000000000000000000000000000000000000000000000000000000000000000000000000000000000000000000000000000000000000000000000000000000000000000000000000000000000000000000000000000000000000000000000000001c0000000000000000000000000000000000000000000000000000000000000004499a88ec4000000000000000000000000acc1fb458a1317e886db376fc8141540537e68fe0000000000000000000000009174c082a4bec1f5a756a0a658bba470bc82550c0000000000000000000000000000000000000000000000000000000000000000000000000000000000000000000000000000000000000000000000410000000000000000000000005e83c7d195318a5acf46b29e5810ddc323b2f6fd0000000000000000000000000000000000000000000000000000000000000000010000000000000000000000000000000000000000000000000000000000000000000000000000000000000000000000000000000000000000000000",
  "operation": 0,
  "gasToken": "0x0000000000000000000000000000000000000000",
  "safeTxGas": 0,
  "baseGas": 0,
  "gasPrice": "0",
  "refundReceiver": "0x0000000000000000000000000000000000000000",
  "nonce": 17,
  "executionDate": "2024-12-13T19:21:12Z",
  "submissionDate": "2024-12-13T19:19:37.543947Z",
  "modified": "2024-12-13T19:21:12Z",
  "blockNumber": 2930109,
  "transactionHash": "0x78d22f3d2c3f1ff1d70b764ad7057131db1d83a14b53d81eabceb2f2b8a2e5ec",
  "safeTxHash": "0x0314dc4ba9a0f64940ac0213d80e3246bb84b8cf84f928469577fc010c570f51",
  "proposer": "0x845FDF97F8022BCf7c4dfe1Be5CE9f0aC80ba58f",
  "executor": "0x27977e6E4426A525d055A587d2a0537b4cb376eA",
  "isExecuted": true,
  "isSuccessful": true,
  "ethGasPrice": "66635560",
  "maxFeePerGas": null,
  "maxPriorityFeePerGas": null,
  "gasUsed": 112683,
  "fee": "7508694807480",
  "origin": "{}",
  "dataDecoded": {
    "method": "schedule",
    "parameters": [
      {
        "name": "target",
        "type": "address",
        "value": "0x28Ade60640fdBDb2609D8d8734D1b5cBeFc0C348"
      },
      {
        "name": "value",
        "type": "uint256",
        "value": "0"
      },
      {
        "name": "data",
        "type": "bytes",
        "value": "0x6a761202000000000000000000000000db023566064246399b4ae851197a97729c93a6cf0000000000000000000000000000000000000000000000000000000000000000000000000000000000000000000000000000000000000000000000000000014000000000000000000000000000000000000000000000000000000000000000000000000000000000000000000000000000000000000000000000000000000000000000000000000000000000000000000000000000000000000000000000000000000000000000000000000000000000000000000000000000000000000000000000000000000000000000000000000000000000000000000000000000000000000000000000000000000000000000000000000000000000000000000000000000000000000000000000000000000000000000000000000000000000000001c0000000000000000000000000000000000000000000000000000000000000004499a88ec4000000000000000000000000acc1fb458a1317e886db376fc8141540537e68fe0000000000000000000000009174c082a4bec1f5a756a0a658bba470bc82550c0000000000000000000000000000000000000000000000000000000000000000000000000000000000000000000000000000000000000000000000410000000000000000000000005e83c7d195318a5acf46b29e5810ddc323b2f6fd00000000000000000000000000000000000000000000000000000000000000000100000000000000000000000000000000000000000000000000000000000000"
      },
      {
        "name": "predecessor",
        "type": "bytes32",
        "value": "0x0000000000000000000000000000000000000000000000000000000000000000"
      },
      {
        "name": "salt",
        "type": "bytes32",
        "value": "0x0000000000000000000000000000000000000000000000000000000000000000"
      },
      {
        "name": "delay",
        "type": "uint256",
        "value": "1"
      }
    ]
  },
  "confirmationsRequired": 2,
  "confirmations": [
    {
      "owner": "0x845FDF97F8022BCf7c4dfe1Be5CE9f0aC80ba58f",
      "submissionDate": "2024-12-13T19:19:37.625133Z",
      "transactionHash": null,
      "signature": "0x78a885cf15b4de775b8b88e60563053c172b6d66d2e5a4a3f746f089bce0574858d3cf27fff75efe93fa75be1e8e37fd68d7330746d3b840b681fa13a3594ef51c",
      "signatureType": "EOA"
    },
    {
      "owner": "0x27977e6E4426A525d055A587d2a0537b4cb376eA",
      "submissionDate": "2024-12-13T19:21:12Z",
      "transactionHash": null,
      "signature": "0x00000000000000000000000027977e6e4426a525d055a587d2a0537b4cb376ea000000000000000000000000000000000000000000000000000000000000000001",
      "signatureType": "APPROVED_HASH"
    }
  ],
  "trusted": true,
  "signatures": "0x00000000000000000000000027977e6e4426a525d055a587d2a0537b4cb376ea00000000000000000000000000000000000000000000000000000000000000000178a885cf15b4de775b8b88e60563053c172b6d66d2e5a4a3f746f089bce0574858d3cf27fff75efe93fa75be1e8e37fd68d7330746d3b840b681fa13a3594ef51c"
}