{
  "safe": "0x461854d84Ee845F905e0eCf6C288DDEEb4A9533F",
  "to": "0xC06Fd4F821eaC1fF1ae8067b36342899b57BAa2d",
  "value": "0",
  "data": "0x134008d3000000000000000000000000369e6f597e22eab55ffb173c6d9cd234bd699111000000000000000000000000000000000000000000000000000000000000000000000000000000000000000000000000000000000000000000000000000000a00000000000000000000000000000000000000000000000000000000000000000000000000000000000000000000000000000000000000000000000000000000000000000000000000000000000000000000000000000000000000000000002446a7612020000000000000000000000008b9566ada63b64d1e1dcf1418b43fd1433b724440000000000000000000000000000000000000000000000000000000000000000000000000000000000000000000000000000000000000000000000000000014000000000000000000000000000000000000000000000000000000000000000000000000000000000000000000000000000000000000000000000000000000000000000000000000000000000000000000000000000000000000000000000000000000000000000000000000000000000000000000000000000000000000000000000000000000000000000000000000000000000000000000000000000000000000000000000000000000000000000000000000000000000000000000000000000000000000000000000000000000000000000000000000000000000000001c0000000000000000000000000000000000000000000000000000000000000004499a88ec40000000000000000000000007750d328b314effa365a0402ccfd489b80b0adda00000000000000000000000029a954e9e7f12936db89b183ecdf879fbbb99f14000000000000000000000000000000000000000000000000000000000000000000000000000000000000000000000000000000000000000000000041000000000000000000000000c06fd4f821eac1ff1ae8067b36342899b57baa2d0000000000000000000000000000000000000000000000000000000000000000010000000000000000000000000000000000000000000000000000000000000000000000000000000000000000000000000000000000000000000000",
  "operation": 0,
  "gasToken": "0x0000000000000000000000000000000000000000",
  "safeTxGas": 0,
  "baseGas": 0,
  "gasPrice": "0",
  "refundReceiver": "0x0000000000000000000000000000000000000000",
  "nonce": 6,
  "executionDate": "2025-01-21T20:49:35Z",
  "submissionDate": "2025-01-21T20:39:56.993626Z",
  "modified": "2025-01-21T20:49:40.575098Z",
  "blockNumber": 21675358,
  "transactionHash": "0xef2204dcbb42fffa76f11d266a475be5f14a0f377acfa83cbfb9042db77d93e7",
  "safeTxHash": "0x855d4025305a0dedc19a34fc5fcc22abb1ccb204be52bcc0496715d8e10e88eb",
  "proposer": "0x9229C290F60F303884073F28EB8E81F9B82506d5",
  "proposedByDelegate": null,
  "executor": "0x9229C290F60F303884073F28EB8E81F9B82506d5",
  "isExecuted": true,
  "isSuccessful": true,
  "ethGasPrice": "15065176719",
  "maxFeePerGas": "15629288620",
  "maxPriorityFeePerGas": "970000000",
  "gasUsed": 135635,
  "fee": "2043365244281565",
  "origin": "{}",
  "dataDecoded": {
    "method": "execute",
    "parameters": [
      {
        "name": "target",
        "type": "address",
        "value": "0x369e6F597e22EaB55fFb173C6d9cD234BD699111"
      },
      {
        "name": "value",
        "type": "uint256",
        "value": "0"
      },
      {
        "name": "payload",
        "type": "bytes",
        "value": "0x6a7612020000000000000000000000008b9566ada63b64d1e1dcf1418b43fd1433b724440000000000000000000000000000000000000000000000000000000000000000000000000000000000000000000000000000000000000000000000000000014000000000000000000000000000000000000000000000000000000000000000000000000000000000000000000000000000000000000000000000000000000000000000000000000000000000000000000000000000000000000000000000000000000000000000000000000000000000000000000000000000000000000000000000000000000000000000000000000000000000000000000000000000000000000000000000000000000000000000000000000000000000000000000000000000000000000000000000000000000000000000000000000000000000000001c0000000000000000000000000000000000000000000000000000000000000004499a88ec40000000000000000000000007750d328b314effa365a0402ccfd489b80b0adda00000000000000000000000029a954e9e7f12936db89b183ecdf879fbbb99f14000000000000000000000000000000000000000000000000000000000000000000000000000000000000000000000000000000000000000000000041000000000000000000000000c06fd4f821eac1ff1ae8067b36342899b57baa2d00000000000000000000000000000000000000000000000000000000000000000100000000000000000000000000000000000000000000000000000000000000"
      },
      {
        "name": "predecessor",
        "type": "bytes32",
        "value": "0x0000000000000000000000000000000000000000000000000000000000000000"
      },
      {
        "name": "salt",
        "type": "bytes32",
        "value": "0x0000000000000000000000000000000000000000000000000000000000000000"
      }
    ]
  },
  "confirmationsRequired": 3,
  "confirmations": [
    {
      "owner": "0x9229C290F60F303884073F28EB8E81F9B82506d5",
      "submissionDate": "2025-01-21T20:39:57.025197Z",
      "transactionHash": null,
      "signature": "0x3c60be5879d13265409e6adc279790647161429bc5a57a21d5c5e1ffd330fd711c64a722e5ab15cea96c359b66db57beae1d9cbc877ae2e199178c0f06ceadf11c",
      "signatureType": "EOA"
    },
    {
      "owner": "0xc5280E368648b0e192b355c7d8330593bA7af700",
      "submissionDate": "2025-01-21T20:48:11.629288Z",
      "transactionHash": null,
      "signature": "0x49514401de24d360f94fdc503537c99ff7fd2978ac7c218c06694c1e9591144c00baabca4bbad8e8e682a67d9a48a85093e72d47060ed6ccd69654fe6392094d1c",
      "signatureType": "EOA"
    },
    {
      "owner": "0xC6F9BDEEdEf78c2Cd146cdA31C82F76ca14A2927",
      "submissionDate": "2025-01-21T20:48:33.933421Z",
      "transactionHash": null,
      "signature": "0x1a4b3672d0515d904365b07992f22e09a4334f9ed9a469fd07a3c91b12d7042c7c47aa54304805ca15942611e48b50830341258ce7de02b0bc77da942d01567a1b",
      "signatureType": "EOA"
    }
  ],
  "trusted": true,
  "signatures": "0x3c60be5879d13265409e6adc279790647161429bc5a57a21d5c5e1ffd330fd711c64a722e5ab15cea96c359b66db57beae1d9cbc877ae2e199178c0f06ceadf11c49514401de24d360f94fdc503537c99ff7fd2978ac7c218c06694c1e9591144c00baabca4bbad8e8e682a67d9a48a85093e72d47060ed6ccd69654fe6392094d1c1a4b3672d0515d904365b07992f22e09a4334f9ed9a469fd07a3c91b12d7042c7c47aa54304805ca15942611e48b50830341258ce7de02b0bc77da942d01567a1b"
}