{
  "safe": "0x6d609cD2812bDA02a75dcABa7DaafE4B20Ff5608",
  "to": "0x7c66A1e862E11C4887270aBd649157ACe837A2D0",
  "value": "0",
  "data": "0x01d5062a00000000000000000000000084e5e0d6f6c3153057bd5d661be1ff1766ceac08000000000000000000000000000000000000000000000000000000000000000000000000000000000000000000000000000000000000000000000000000000c043e8e56a767f5a57634b62ea942146c65c707b962e170afbaae28cae498aaec70000000000000000000000000000000000000000000000000000000000000000000000000000000000000000000000000000000000000000000000000000000100000000000000000000000000000000000000000000000000000000000002c46a76120200000000000000000000000040a2accbd92bca938b02010e17a5b8929b49130d00000000000000000000000000000000000000000000000000000000000000000000000000000000000000000000000000000000000000000000000000000140000000000000000000000000000000000000000000000000000000000000000100000000000000000000000000000000000000000000000000000000000000000000000000000000000000000000000000000000000000000000000000000000000000000000000000000000000000000000000000000000000000000000000000000000000000000000000000000000000000000000000000000000000000000000000000000000000000000000000000000000000000000000000000000000000000000000000000000000000000000000000000000000000000000000024000000000000000000000000000000000000000000000000000000000000000c48d80ff0a0000000000000000000000000000000000000000000000000000000000000020000000000000000000000000000000000000000000000000000000000000007900b8d8952f572e67b11e43bc21250967772fa883ff00000000000000000000000000000000000000000000000000000000000000000000000000000000000000000000000000000000000000000000000000000024fabc1cbc0000000000000000000000000000000000000000000000000000000000000000000000000000000000000000000000000000000000000000000000000000000000000000000000000000000000000000000000000000000000000000000000000000410000000000000000000000007c66a1e862e11c4887270abd649157ace837a2d00000000000000000000000000000000000000000000000000000000000000000010000000000000000000000000000000000000000000000000000000000000000000000000000000000000000000000000000000000000000000000",
  "operation": 0,
  "gasToken": "0x0000000000000000000000000000000000000000",
  "safeTxGas": 0,
  "baseGas": 0,
  "gasPrice": "0",
  "refundReceiver": "0x0000000000000000000000000000000000000000",
  "nonce": 17,
  "executionDate": "2025-02-24T19:13:24Z",
  "submissionDate": "2025-02-24T19:11:32.564313Z",
  "modified": "2025-02-24T19:13:31.999468Z",
  "blockNumber": 3418955,
  "transactionHash": "0x53f733793cc77c2761896c37863d3332c747e7693059ac61e450ac77629ccfc3",
  "safeTxHash": "0x77e8034299e53bdf0076fec07c5eb1faa4ff015ba5c1efe261f463ccf14bcc39",
  "proposer": "0xDA29BB71669f46F2a779b4b62f03644A84eE3479",
  "executor": "0xDA29BB71669f46F2a779b4b62f03644A84eE3479",
  "isExecuted": true,
  "isSuccessful": true,
  "ethGasPrice": "2557987",
  "maxFeePerGas": "4200204",
  "maxPriorityFeePerGas": "970000",
  "gasUsed": 111732,
  "fee": "285809003484",
  "origin": "{}",
  "dataDecoded": {
    "method": "schedule",
    "parameters": [
      {
        "name": "target",
        "type": "address",
        "value": "0x84E5e0D6f6c3153057bd5d661Be1ff1766cEac08"
      },
      {
        "name": "value",
        "type": "uint256",
        "value": "0"
      },
      {
        "name": "data",
        "type": "bytes",
        "value": "0x6a76120200000000000000000000000040a2accbd92bca938b02010e17a5b8929b49130d00000000000000000000000000000000000000000000000000000000000000000000000000000000000000000000000000000000000000000000000000000140000000000000000000000000000000000000000000000000000000000000000100000000000000000000000000000000000000000000000000000000000000000000000000000000000000000000000000000000000000000000000000000000000000000000000000000000000000000000000000000000000000000000000000000000000000000000000000000000000000000000000000000000000000000000000000000000000000000000000000000000000000000000000000000000000000000000000000000000000000000000000000000000000000000000024000000000000000000000000000000000000000000000000000000000000000c48d80ff0a0000000000000000000000000000000000000000000000000000000000000020000000000000000000000000000000000000000000000000000000000000007900b8d8952f572e67b11e43bc21250967772fa883ff00000000000000000000000000000000000000000000000000000000000000000000000000000000000000000000000000000000000000000000000000000024fabc1cbc0000000000000000000000000000000000000000000000000000000000000000000000000000000000000000000000000000000000000000000000000000000000000000000000000000000000000000000000000000000000000000000000000000410000000000000000000000007c66a1e862e11c4887270abd649157ace837a2d000000000000000000000000000000000000000000000000000000000000000000100000000000000000000000000000000000000000000000000000000000000"
      },
      {
        "name": "predecessor",
        "type": "bytes32",
        "value": "0x43e8e56a767f5a57634b62ea942146c65c707b962e170afbaae28cae498aaec7"
      },
      {
        "name": "salt",
        "type": "bytes32",
        "value": "0x0000000000000000000000000000000000000000000000000000000000000000"
      },
      {
        "name": "delay",
        "type": "uint256",
        "value": "1"
      }
    ]
  },
  "confirmationsRequired": 1,
  "confirmations": [
    {
      "owner": "0xDA29BB71669f46F2a779b4b62f03644A84eE3479",
      "submissionDate": "2025-02-24T19:11:32.691501Z",
      "transactionHash": null,
      "signature": "0x7a73c0076d88029b69ed056bcb50848f21f7920a8d6a7301b4642e5256bd781330fc74bbf6e585ffa6170ccb28518085655136dc7c921395aa96d7bc32a639711c",
      "signatureType": "EOA"
    }
  ],
  "trusted": true,
  "signatures": "0x7a73c0076d88029b69ed056bcb50848f21f7920a8d6a7301b4642e5256bd781330fc74bbf6e585ffa6170ccb28518085655136dc7c921395aa96d7bc32a639711c"
}