{
  "safe": "0xd140eE77d9e62901d8cEFf199d3ef4Dd1F4Eaff4",
  "to": "0x5e83c7d195318A5acf46B29E5810DdC323b2F6fD",
  "value": "0",
  "data": "0x134008d300000000000000000000000028ade60640fdbdb2609d8d8734d1b5cbefc0c348000000000000000000000000000000000000000000000000000000000000000000000000000000000000000000000000000000000000000000000000000000a00000000000000000000000000000000000000000000000000000000000000000000000000000000000000000000000000000000000000000000000000000000000000000000000000000000000000000000000000000000000000000000002e46a76120200000000000000000000000040a2accbd92bca938b02010e17a5b8929b49130d00000000000000000000000000000000000000000000000000000000000000000000000000000000000000000000000000000000000000000000000000000140000000000000000000000000000000000000000000000000000000000000000100000000000000000000000000000000000000000000000000000000000000000000000000000000000000000000000000000000000000000000000000000000000000000000000000000000000000000000000000000000000000000000000000000000000000000000000000000000000000000000000000000000000000000000000000000000000000000000000000000000000000000000000000000000000000000000000000000000000000000000000000000000000000000000026000000000000000000000000000000000000000000000000000000000000000e48d80ff0a0000000000000000000000000000000000000000000000000000000000000020000000000000000000000000000000000000000000000000000000000000009900db023566064246399b4ae851197a97729c93a6cf0000000000000000000000000000000000000000000000000000000000000000000000000000000000000000000000000000000000000000000000000000004499a88ec4000000000000000000000000acc1fb458a1317e886db376fc8141540537e68fe000000000000000000000000a174a41f1bdb09a8ae8ad6f7c99ba997c225ead9000000000000000000000000000000000000000000000000000000000000000000000000000000000000000000000000000000000000000000000000000000000000410000000000000000000000005e83c7d195318a5acf46b29e5810ddc323b2f6fd0000000000000000000000000000000000000000000000000000000000000000010000000000000000000000000000000000000000000000000000000000000000000000000000000000000000000000000000000000000000000000",
  "operation": 0,
  "gasToken": "0x0000000000000000000000000000000000000000",
  "safeTxGas": 0,
  "baseGas": 0,
  "gasPrice": "0",
  "refundReceiver": "0x0000000000000000000000000000000000000000",
  "nonce": 14,
  "executionDate": "2025-02-10T20:50:36Z",
  "submissionDate": "2025-02-10T20:47:00.179165Z",
  "modified": "2025-02-10T20:50:43.717631Z",
  "blockNumber": 3326530,
  "transactionHash": "0x91545aaf8d7df00d7514c1d3a90400ef24be15df605f31666598e5d02402b268",
  "safeTxHash": "0x3766fa30671b7ca794c5ec5680971d942436e733b82da7933befa44abbe7280d",
  "proposer": "0x845FDF97F8022BCf7c4dfe1Be5CE9f0aC80ba58f",
  "executor": "0x6c64B7DD01aB73ABEaf8D79f906C9C608f2D4033",
  "isExecuted": true,
  "isSuccessful": true,
  "ethGasPrice": "1000000007",
  "maxFeePerGas": "1000000014",
  "maxPriorityFeePerGas": "1000000000",
  "gasUsed": 157930,
  "fee": "157930001105510",
  "origin": "{}",
  "dataDecoded": {
    "method": "execute",
    "parameters": [
      {
        "name": "target",
        "type": "address",
        "value": "0x28Ade60640fdBDb2609D8d8734D1b5cBeFc0C348"
      },
      {
        "name": "value",
        "type": "uint256",
        "value": "0"
      },
      {
        "name": "payload",
        "type": "bytes",
        "value": "0x6a76120200000000000000000000000040a2accbd92bca938b02010e17a5b8929b49130d00000000000000000000000000000000000000000000000000000000000000000000000000000000000000000000000000000000000000000000000000000140000000000000000000000000000000000000000000000000000000000000000100000000000000000000000000000000000000000000000000000000000000000000000000000000000000000000000000000000000000000000000000000000000000000000000000000000000000000000000000000000000000000000000000000000000000000000000000000000000000000000000000000000000000000000000000000000000000000000000000000000000000000000000000000000000000000000000000000000000000000000000000000000000000000000026000000000000000000000000000000000000000000000000000000000000000e48d80ff0a0000000000000000000000000000000000000000000000000000000000000020000000000000000000000000000000000000000000000000000000000000009900db023566064246399b4ae851197a97729c93a6cf0000000000000000000000000000000000000000000000000000000000000000000000000000000000000000000000000000000000000000000000000000004499a88ec4000000000000000000000000acc1fb458a1317e886db376fc8141540537e68fe000000000000000000000000a174a41f1bdb09a8ae8ad6f7c99ba997c225ead9000000000000000000000000000000000000000000000000000000000000000000000000000000000000000000000000000000000000000000000000000000000000410000000000000000000000005e83c7d195318a5acf46b29e5810ddc323b2f6fd00000000000000000000000000000000000000000000000000000000000000000100000000000000000000000000000000000000000000000000000000000000"
      },
      {
        "name": "predecessor",
        "type": "bytes32",
        "value": "0x0000000000000000000000000000000000000000000000000000000000000000"
      },
      {
        "name": "salt",
        "type": "bytes32",
        "value": "0x0000000000000000000000000000000000000000000000000000000000000000"
      }
    ]
  },
  "confirmationsRequired": 2,
  "confirmations": [
    {
      "owner": "0x845FDF97F8022BCf7c4dfe1Be5CE9f0aC80ba58f",
      "submissionDate": "2025-02-10T20:47:00.253449Z",
      "transactionHash": null,
      "signature": "0x2c021bac36423b87525156bd822b3179d4543e9674bf6de058bfdb82f333607314ba6124abfa24e08b39c1fc98124eee7952092fff1c3fe7aade33cfb15fa5831b",
      "signatureType": "EOA"
    },
    {
      "owner": "0x6c64B7DD01aB73ABEaf8D79f906C9C608f2D4033",
      "submissionDate": "2025-02-10T20:48:07.173319Z",
      "transactionHash": null,
      "signature": "0x4f4ea388cdc19e2ee8143fb41696606ea275adfaf0f1741fd9ca33e66451afcb581f9a5a7bf2047d457433a9f2fbbff1bee8bcb4e1ff36b4949a6679aaf0d27b1c",
      "signatureType": "EOA"
    }
  ],
  "trusted": true,
  "signatures": "0x4f4ea388cdc19e2ee8143fb41696606ea275adfaf0f1741fd9ca33e66451afcb581f9a5a7bf2047d457433a9f2fbbff1bee8bcb4e1ff36b4949a6679aaf0d27b1c2c021bac36423b87525156bd822b3179d4543e9674bf6de058bfdb82f333607314ba6124abfa24e08b39c1fc98124eee7952092fff1c3fe7aade33cfb15fa5831b"
}