{
  "safe": "0xd140eE77d9e62901d8cEFf199d3ef4Dd1F4Eaff4",
  "to": "0x5e83c7d195318A5acf46B29E5810DdC323b2F6fD",
  "value": "0",
  "data": "0x134008d300000000000000000000000028ade60640fdbdb2609d8d8734d1b5cbefc0c348000000000000000000000000000000000000000000000000000000000000000000000000000000000000000000000000000000000000000000000000000000a00000000000000000000000000000000000000000000000000000000000000000000000000000000000000000000000000000000000000000000000000000000000000000000000000000000000000000000000000000000000000000000002446a761202000000000000000000000000db023566064246399b4ae851197a97729c93a6cf0000000000000000000000000000000000000000000000000000000000000000000000000000000000000000000000000000000000000000000000000000014000000000000000000000000000000000000000000000000000000000000000000000000000000000000000000000000000000000000000000000000000000000000000000000000000000000000000000000000000000000000000000000000000000000000000000000000000000000000000000000000000000000000000000000000000000000000000000000000000000000000000000000000000000000000000000000000000000000000000000000000000000000000000000000000000000000000000000000000000000000000000000000000000000000000001c0000000000000000000000000000000000000000000000000000000000000004499a88ec4000000000000000000000000acc1fb458a1317e886db376fc8141540537e68fe0000000000000000000000009174c082a4bec1f5a756a0a658bba470bc82550c0000000000000000000000000000000000000000000000000000000000000000000000000000000000000000000000000000000000000000000000410000000000000000000000005e83c7d195318a5acf46b29e5810ddc323b2f6fd0000000000000000000000000000000000000000000000000000000000000000010000000000000000000000000000000000000000000000000000000000000000000000000000000000000000000000000000000000000000000000",
  "operation": 0,
  "gasToken": "0x0000000000000000000000000000000000000000",
  "safeTxGas": 0,
  "baseGas": 0,
  "gasPrice": "0",
  "refundReceiver": "0x0000000000000000000000000000000000000000",
  "nonce": 11,
  "executionDate": "2024-12-13T19:28:36Z",
  "submissionDate": "2024-12-13T19:25:32.190841Z",
  "modified": "2024-12-13T19:28:36Z",
  "blockNumber": 2930139,
  "transactionHash": "0xeb12a6ffbcbd24924566815ab4b1ac21a99717fea0ba4355db0b443d95a8673b",
  "safeTxHash": "0xa6a96dcaaa699869a012130da7cae1cd064a89c6042d6477c8cc647fae4865d1",
  "proposer": "0x845FDF97F8022BCf7c4dfe1Be5CE9f0aC80ba58f",
  "executor": "0x27977e6E4426A525d055A587d2a0537b4cb376eA",
  "isExecuted": true,
  "isSuccessful": true,
  "ethGasPrice": "66635560",
  "maxFeePerGas": null,
  "maxPriorityFeePerGas": null,
  "gasUsed": 145517,
  "fee": "9696606784520",
  "origin": "{}",
  "dataDecoded": {
    "method": "execute",
    "parameters": [
      {
        "name": "target",
        "type": "address",
        "value": "0x28Ade60640fdBDb2609D8d8734D1b5cBeFc0C348"
      },
      {
        "name": "value",
        "type": "uint256",
        "value": "0"
      },
      {
        "name": "payload",
        "type": "bytes",
        "value": "0x6a761202000000000000000000000000db023566064246399b4ae851197a97729c93a6cf0000000000000000000000000000000000000000000000000000000000000000000000000000000000000000000000000000000000000000000000000000014000000000000000000000000000000000000000000000000000000000000000000000000000000000000000000000000000000000000000000000000000000000000000000000000000000000000000000000000000000000000000000000000000000000000000000000000000000000000000000000000000000000000000000000000000000000000000000000000000000000000000000000000000000000000000000000000000000000000000000000000000000000000000000000000000000000000000000000000000000000000000000000000000000000000001c0000000000000000000000000000000000000000000000000000000000000004499a88ec4000000000000000000000000acc1fb458a1317e886db376fc8141540537e68fe0000000000000000000000009174c082a4bec1f5a756a0a658bba470bc82550c0000000000000000000000000000000000000000000000000000000000000000000000000000000000000000000000000000000000000000000000410000000000000000000000005e83c7d195318a5acf46b29e5810ddc323b2f6fd00000000000000000000000000000000000000000000000000000000000000000100000000000000000000000000000000000000000000000000000000000000"
      },
      {
        "name": "predecessor",
        "type": "bytes32",
        "value": "0x0000000000000000000000000000000000000000000000000000000000000000"
      },
      {
        "name": "salt",
        "type": "bytes32",
        "value": "0x0000000000000000000000000000000000000000000000000000000000000000"
      }
    ]
  },
  "confirmationsRequired": 2,
  "confirmations": [
    {
      "owner": "0x845FDF97F8022BCf7c4dfe1Be5CE9f0aC80ba58f",
      "submissionDate": "2024-12-13T19:25:32.253770Z",
      "transactionHash": null,
      "signature": "0x6d9e2cbf38c9979b761f58a92a6273e3e0eb1c7c336a4508c96f92add46dcb2a1c3b8b5f99a925312db30eb6a90f8f1d0fac2f71f7fd894c5453e1df3e1e3d6c1c",
      "signatureType": "EOA"
    },
    {
      "owner": "0x27977e6E4426A525d055A587d2a0537b4cb376eA",
      "submissionDate": "2024-12-13T19:28:36Z",
      "transactionHash": null,
      "signature": "0x00000000000000000000000027977e6e4426a525d055a587d2a0537b4cb376ea000000000000000000000000000000000000000000000000000000000000000001",
      "signatureType": "APPROVED_HASH"
    }
  ],
  "trusted": true,
  "signatures": "0x00000000000000000000000027977e6e4426a525d055a587d2a0537b4cb376ea0000000000000000000000000000000000000000000000000000000000000000016d9e2cbf38c9979b761f58a92a6273e3e0eb1c7c336a4508c96f92add46dcb2a1c3b8b5f99a925312db30eb6a90f8f1d0fac2f71f7fd894c5453e1df3e1e3d6c1c"
}