{
  "safe": "0x314A6B61B5CBFA79dc7b2c0416e039822E886b54",
  "to": "0x7c66A1e862E11C4887270aBd649157ACe837A2D0",
  "value": "0",
  "data": "0x134008d300000000000000000000000084e5e0d6f6c3153057bd5d661be1ff1766ceac08000000000000000000000000000000000000000000000000000000000000000000000000000000000000000000000000000000000000000000000000000000a00000000000000000000000000000000000000000000000000000000000000000000000000000000000000000000000000000000000000000000000000000000000000000000000000000000000000000000000000000000000000000000003e46a76120200000000000000000000000040a2accbd92bca938b02010e17a5b8929b49130d00000000000000000000000000000000000000000000000000000000000000000000000000000000000000000000000000000000000000000000000000000140000000000000000000000000000000000000000000000000000000000000000100000000000000000000000000000000000000000000000000000000000000000000000000000000000000000000000000000000000000000000000000000000000000000000000000000000000000000000000000000000000000000000000000000000000000000000000000000000000000000000000000000000000000000000000000000000000000000000000000000000000000000000000000000000000000000000000000000000000000000000000000000000000000000000036000000000000000000000000000000000000000000000000000000000000001e48d80ff0a0000000000000000000000000000000000000000000000000000000000000020000000000000000000000000000000000000000000000000000000000000018b0092cc4a800a1513e85c481dddf3a06c6921211eac000000000000000000000000000000000000000000000000000000000000000000000000000000000000000000000000000000000000000000000000000000243659cfe6000000000000000000000000473b5943af507a5fdb403c67b2971e5724b64938001bef05c7303d44e0e2fcd2a19d993eded4c51b5b0000000000000000000000000000000000000000000000000000000000000000000000000000000000000000000000000000000000000000000000000000004499a88ec4000000000000000000000000b8d8952f572e67b11e43bc21250967772fa883ff0000000000000000000000000696114a2d169d68849b904a00d7add90d31ee2400b8d8952f572e67b11e43bc21250967772fa883ff000000000000000000000000000000000000000000000000000000000000000000000000000000000000000000000000000000000000000000000000000000240d1e9de10000000000000000000000006d609cd2812bda02a75dcaba7daafe4b20ff56080000000000000000000000000000000000000000000000000000000000000000000000000000000000000000000000000000000000000000000000000000000000000000000000000000000000000000410000000000000000000000007c66a1e862e11c4887270abd649157ace837a2d00000000000000000000000000000000000000000000000000000000000000000010000000000000000000000000000000000000000000000000000000000000000000000000000000000000000000000000000000000000000000000",
  "operation": 0,
  "gasToken": "0x0000000000000000000000000000000000000000",
  "safeTxGas": 0,
  "baseGas": 0,
  "gasPrice": "0",
  "refundReceiver": "0x0000000000000000000000000000000000000000",
  "nonce": 14,
  "executionDate": null,
  "submissionDate": "2025-02-24T21:53:44.110578Z",
  "modified": "2025-02-24T21:53:44.276844Z",
  "blockNumber": null,
  "transactionHash": null,
  "safeTxHash": "0x703226d9889513d912e6aca20508c24faa0ce16f7e2d6dc4a27c93d0ffc22924",
  "proposer": "0xDA29BB71669f46F2a779b4b62f03644A84eE3479",
  "executor": null,
  "isExecuted": false,
  "isSuccessful": null,
  "ethGasPrice": null,
  "maxFeePerGas": null,
  "maxPriorityFeePerGas": null,
  "gasUsed": null,
  "fee": null,
  "origin": "{}",
  "dataDecoded": {
    "method": "execute",
    "parameters": [
      {
        "name": "target",
        "type": "address",
        "value": "0x84E5e0D6f6c3153057bd5d661Be1ff1766cEac08"
      },
      {
        "name": "value",
        "type": "uint256",
        "value": "0"
      },
      {
        "name": "payload",
        "type": "bytes",
        "value": "0x6a76120200000000000000000000000040a2accbd92bca938b02010e17a5b8929b49130d00000000000000000000000000000000000000000000000000000000000000000000000000000000000000000000000000000000000000000000000000000140000000000000000000000000000000000000000000000000000000000000000100000000000000000000000000000000000000000000000000000000000000000000000000000000000000000000000000000000000000000000000000000000000000000000000000000000000000000000000000000000000000000000000000000000000000000000000000000000000000000000000000000000000000000000000000000000000000000000000000000000000000000000000000000000000000000000000000000000000000000000000000000000000000000000036000000000000000000000000000000000000000000000000000000000000001e48d80ff0a0000000000000000000000000000000000000000000000000000000000000020000000000000000000000000000000000000000000000000000000000000018b0092cc4a800a1513e85c481dddf3a06c6921211eac000000000000000000000000000000000000000000000000000000000000000000000000000000000000000000000000000000000000000000000000000000243659cfe6000000000000000000000000473b5943af507a5fdb403c67b2971e5724b64938001bef05c7303d44e0e2fcd2a19d993eded4c51b5b0000000000000000000000000000000000000000000000000000000000000000000000000000000000000000000000000000000000000000000000000000004499a88ec4000000000000000000000000b8d8952f572e67b11e43bc21250967772fa883ff0000000000000000000000000696114a2d169d68849b904a00d7add90d31ee2400b8d8952f572e67b11e43bc21250967772fa883ff000000000000000000000000000000000000000000000000000000000000000000000000000000000000000000000000000000000000000000000000000000240d1e9de10000000000000000000000006d609cd2812bda02a75dcaba7daafe4b20ff56080000000000000000000000000000000000000000000000000000000000000000000000000000000000000000000000000000000000000000000000000000000000000000000000000000000000000000410000000000000000000000007c66a1e862e11c4887270abd649157ace837a2d000000000000000000000000000000000000000000000000000000000000000000100000000000000000000000000000000000000000000000000000000000000"
      },
      {
        "name": "predecessor",
        "type": "bytes32",
        "value": "0x0000000000000000000000000000000000000000000000000000000000000000"
      },
      {
        "name": "salt",
        "type": "bytes32",
        "value": "0x0000000000000000000000000000000000000000000000000000000000000000"
      }
    ]
  },
  "confirmationsRequired": 1,
  "confirmations": [
    {
      "owner": "0xDA29BB71669f46F2a779b4b62f03644A84eE3479",
      "submissionDate": "2025-02-24T21:53:44.276844Z",
      "transactionHash": null,
      "signature": "0x5779d1d0c6d346dcc01c5daf05736eecc4bc5df56fe73f13e07cf333354ce1345a9b06c3967f391f6391b3128c6a980f451e244e8452390977a16415bf491a381b",
      "signatureType": "EOA"
    }
  ],
  "trusted": true,
  "signatures": null
}